:100000000C94D11F0C9411200C9411200C941120ED
:100010000C9411200C9411200C9411200C9411209C
:100020000C9411200C9411200C9411200C9411208C
:100030000C9411200C9411200C9411200C9411207C
:100040000C9411200C9401B90C9411200C941120E3
:100050000C9411200C94CBB70C9411200D942B1000
:100060000C9411200C94A4770C949A770C94112082
:100070000C9411200C9411200C9411200C9411203C
:100080000C94E5690C9411200C9411200C9411200F
:100090000C9411200C9411200C9411200C9411201C
:1000A0000C9411200C9411200C94B7690C9411201D
:1000B0000C9411200C9411200C9411200C941120FC
:1000C0000C9411200C9411200C9411200C941120EC
:1000D0000C9411200C9411200C9411200C941120DC
:1000E0000C941120084AD73B3BCE016E84BCBFFD67
:1000F000C12F3D6C74319ABD56833DDA3D00C77FF8
:1001000011BED9E4BB4C3E916BAAAABE0000008090
:100110003F05A84CCDB2D44EB93836A9020C50B91F
:10012000918688083CA6AAAA2ABE000000803F004B
:100130000C9403650C94D8770C94B5AE0C94005EC7
:100140000C94C05A0C943FAB0C94D7370C94AE5A15
:100150000C9497670D94C00F0C94B8280D94940FCD
:100160000C9475D90C94EE650C9403680C9425D707
:100170000C947BD90C94AD270C94CFAE0C9482F3E5
:100180000C9481A90C9486650C94972C0C94BF2434
:100190000C94F6AF0C9451A70C940A420C940252A2
:1001A0000C94CAAE0C94BA5A0C947A4D0C9437B88D
:1001B0000C940BDF0C9428780D94BA0F0C94BDE1CD
:1001C0000C9430780C94E8670C9410660C94A92772
:1001D0000C948AA90C9479550C94CA650D946E0FF1
:1001E0000C945EA90C9472570C943B280C940E66E8
:1001F0000C94A7500D94850F0C942C200C941D7812
:100200000C94FF770C94FBAF0D949A0F0C947C2800
:100210000C9491240C9421580C94A8240C944724F9
:100220000C944E250C94B45A0C9444780C94D1B18F
:100230000C94D3240C9425AD0C949C5A0C9438B196
:100240000C94B3570C94905A0C9465240C94302958
:100250000D94442C0C9483AE0C94CC5A0C947D24B5
:100260000C940C2C0C941CAC0C94CD670C945BACD3
:100270000C94965A0C9454A70C942BF40C9460464E
:100280000C94C5230C94B6280C944E360C94EC6553
:100290000C946F240C9472280C946CF10C949EAB0B
:1002A0000C9451AE0C94D25A0C94CEBE0C94A6650C
:1002B0000C94D0240C949CAE0C94D2570C9481F3E3
:1002C0000D94B60F0C94FA280D94B20F0C943324AD
:1002D0000C94483E0D94A80F0C9400B00D94910F0F
:1002E0000D94890F0C945B240C949D230C94D6A838
:1002F0000C942EAC0C9412660C942F650C94FCBEDE
:100300000C94D7270C94ECAF0C9489AA0C94BC28BD
:100310000C9456460C947A650C942C780C941F24FB
:100320000C941FB00C94C0280C94AC480C9450A7AB
:100330000C94574A0C941B400C94C8650C9478D9C3
:100340000C944FDD0C9424780C94C25D0C9483AB18
:100350000C9431280C94AA3E0D948D0F0C94CF234D
:100360000C94A7450C9409240C94F4270C94F1AF39
:100370000C94B9E00C94A7DB0C942F3E0C94EA6526
:100380000C946AAE0C94CF270D9469220C94D32759
:100390000C9454F30C940E780C94394F0D94730F05
:1003A0000C947C670C94A4650D949E0F0C94A85A31
:1003B0000C94B2670C94C6650C94B33A0C942AAEB4
:1003C0000C94A6AA0C9491B00D94C40F0C94273EE3
:1003D0000C943EB00C94FFA90C943C780C94BE286D
:1003E0000C9487E40C94E3230C94CEA60C945E2723
:1003F0000C94A25A0C944B250C9434780C94C65A45
:100400000C9438780C94ED230C94FE430C94B12397
:100410000C94FB230C94352C0C94BA280C9499B0B2
:100420000C941EAB0D94AC0F0D94A40F0C948A3D4C
:100430000C9413204E414E494E495459494E46CDD5
:10044000CCCC3D0AD7233C17B7D13877CC2B32958B
:1004500095E6241FB14F0A000020410000C8420069
:10046000401C4620BCBE4CCA1B0E5AAEC59D740033
:10047000407A10F35A00A0724E18090010A5D4E873
:100480000000E87648170000E40B54020000CA9A06
:100490003B000000E1F50500008096980000004058
:1004A000420F000000A0860100000010270000009D
:1004B00000E803000000006400000000000A0000E3
:1004C0000000000100000000002C76D888DC674F97
:1004D0000823DFC1DFAE59E1B1B796E5E3E453C6C7
:1004E0003AE651997696E8E6C28426EB898C9B62BF
:1004F000ED407C6FFCEFBC9C9F40F2BAA56FA5F469
:1005000090055A2AF75C936B6CF9676DC11BFCE090
:10051000E40D47FEF520E6B500D0ED902E030094E3
:100520003577050080841E080000204E0A00000078
:10053000C80C333333330F986E12831141EF8D2182
:1005400014893BE65516CFFEE6DB18D1844B381BE9
:10055000F77C1D901DA4BBE424203284725E2281AE
:1005600000C9F124ECA1E53D27434F4D4D554E49BF
:10057000434154494F4E0044525952554E00455242
:10058000524F525300494E464F004543484F004595
:1005900072726F722077726974696E6720746F204F
:1005A000454550524F4D210A0053544F5050C38976
:1005B000005072696E7465722073746F7070656438
:1005C0002064756520746F206572726F72732E20BF
:1005D00046697820746865206572726F7220616E5A
:1005E0006420757365204D39393920746F20726528
:1005F00073746172742E202854656D706572617415
:100600007572652069732072657365742E20536559
:1006100074206974206166746572207265737461F8
:100620007274696E67290A004E6F20436865636BB8
:1006300073756D2077697468206C696E65206E75BE
:100640006D6265722C204C617374204C696E653A42
:1006500020004E6F20436865636B73756D2077696A
:100660007468206C696E65206E756D6265722C20F1
:100670004C617374204C696E653A20006368656351
:100680006B73756D206D69736D617463682C204C9C
:10069000617374204C696E653A20004C696E652068
:1006A0004E756D626572206973206E6F74204C61A7
:1006B0007374204C696E65204E756D6265722B31C6
:1006C0002C204C617374204C696E653A20004D31CA
:1006D00031300053657269616C2073746174757395
:1006E000206D69736D617463680A005344207265FC
:1006F0006164206572726F720A004B494C4C206233
:100700007574746F6E2F70696E0A002121204B4939
:100710004C4C206361757365642062792000746FAE
:100720006F206D75636820696E61637469766520FA
:1007300074696D65202D2063757272656E74206317
:100740006F6D6D616E643A20002121204B494C4C45
:100750002063617573656420627920006275737926
:100760003A2070617573656420666F7220696E70DF
:1007700075740A00627573793A20706175736564E7
:1007800020666F7220757365720A00627573793A1C
:100790002070726F63657373696E670A004DC3A939
:1007A000646961207265746972C3A9004DC3A9644C
:1007B000696120696E73C3A972C3A900526564C3DD
:1007C000A96D61727265722053565000494D5052A6
:1007D0002E2053544F5050C389450025533A2025AD
:1007E00053004B494C4C4544005072696E7465721D
:1007F0002068616C7465642E206B696C6C282920FC
:1008000063616C6C6564210A00006563686F3A007F
:100810004572726F723A004F4646004F4E00496D66
:100820007072657373696F6E206F626A65740025FC
:10083000532025690042696C696E656172204C65C0
:1008400076656C696E6720477269643A0A004F46A4
:10085000460A00466164652048656967687420003F
:10086000426564204C6576656C696E672000466160
:10087000696C656420746F20656E61626C652042EE
:100880006564204C6576656C696E670A00496E7612
:10089000616C6964206D6573682E0A004D6573751F
:1008A000726520706F696E740025532025692F25AD
:1008B00069002E0A002F0050726F62696E67206D0A
:1008C00065736820706F696E742000202844525947
:1008D00052554E2900473239204175746F204265C8
:1008E00064204C6576656C696E67003F20284C2C4F
:1008F000522C462C4229206F7574206F6620626F3F
:10090000756E64732E0A003F2856296572626F73F4
:1009100065206C6576656C20696D706C61757369B6
:10092000626C652028302D34292E0A004261642033
:100930005A2076616C75650A004E6F2062696C6999
:100940006E65617220677269640A00456361727442
:100950000025533A2025730046696E697368656403
:10096000210A003A207A3A2000206F662000476F63
:10097000696E6720746F3A20580043570A0020645C
:1009800069723A0020616E676C653A005374617257
:1009900074207261646975733A00506F696E7420D7
:1009A0004D34380025533A2025642F256400506FBC
:1009B000736974696F6E696E672074686520707200
:1009C0006F62652E2E2E0A003F4C656773206F669E
:1009D000206D6F76656D656E7420696D706C6175E4
:1009E0007369626C652028302D3135292E0A003F4D
:1009F0002028582C5929206F7574206F6620626F4B
:100A0000756E64732E0A0050726F6265206F757484
:100A1000206F6620626F756E6473003F53616D7066
:100A20006C652073697A65206E6F7420706C6175D7
:100A30007369626C652028342D3530292E0A004DEB
:100A40003438205A2D50726F62652052657065618E
:100A5000746162696C69747920546573740A003F2B
:100A60002856296572626F7365206C6576656C2007
:100A7000696D706C61757369626C652028302D3406
:100A8000292E0A005374616E646172642044657695
:100A9000696174696F6E3A20002052616E67653A31
:100AA0002000204D61783A2000204D696E3A2000E8
:100AB000205369676D613A20004D65616E3A2000F0
:100AC00020440020204D323030205300202844693B
:100AD0007361626C6564293A0046696C616D656E8C
:100AE000742073657474696E67730020204D323012
:100AF000312058004D617820416363656C657261F7
:100B000074696F6E2028756E6974732F73322900B3
:100B100020204D3230332058004D617820666565C5
:100B20006472617465732028756E6974732F7329FC
:100B30000020520020204D323034205000416363A9
:100B4000656C65726174696F6E2028756E69747367
:100B50002F7332292028503C7072696E742D6163A6
:100B600063656C3E20523C726574726163742D61E2
:100B70006363656C3E20543C74726176656C2D61D4
:100B80006363656C3E290020540020530020204DF3
:100B9000323035204200416476616E6365642028FE
:100BA000423C6D696E5F7365676D656E745F7469F5
:100BB0006D655F75733E20533C6D696E5F6665655C
:100BC00064726174653E20543C6D696E5F7472613D
:100BD00076656C5F66656564726174653E20583C3D
:100BE0006D61785F6A65726B3E20593C6D61785F1C
:100BF0006A65726B3E205A3C6D61785F6A65726B04
:100C00003E20453C6D61785F6A65726B3E2900202D
:100C1000440020490020204D333031205000486FDF
:100C200074656E64205049440020496E76616C6999
:100C30006420657874727564657220005265706F07
:100C4000732E2E2E005A2050726F626520506173F1
:100C500074204265640A00536F6E6465205A2068F0
:100C60006F7273206C6974004732384C3000205A20
:100C70003A200020593A200042656420583A20006A
:100C80004D65736820706F696E74206F7574206F86
:100C9000662072616E67650A00417474656E7465E2
:100CA000207574696C69732E004D6F74657572736D
:100CB00020626C6F7175C3A97300456E642066690C
:100CC0006C65206C6973740A00426567696E206602
:100CD000696C65206C6973740A004E6F206D6564E1
:100CE00069610A00286E6F2066696C65290043758A
:100CF0007272656E742066696C653A20004E6F747E
:100D0000205344207072696E74696E670A00534400
:100D1000207072696E74696E672062797465200054
:100D20002E0A0044656C6574696F6E206661696C9B
:100D300065642C2046696C653A200046696C652024
:100D400064656C657465643A005072696E742074F1
:100D5000696D653A20006F6B006F6666008A0585D5
:100D6000057E057705690544454255473A004D31F2
:100D70003133205300435231302D5632204F4646F6
:100D80002E00434F4E4649475F4558504F5254003E
:100D90004D4541545041434B00434F4F4C45525FEA
:100DA00054454D5045524154555245004348414DDC
:100DB0004245525F54454D504552415455524500AD
:100DC000424142595354455050494E4700415243C5
:100DD00053004D4F54494F4E5F4D4F4445530054BF
:100DE0004845524D414C5F50524F54454354494F32
:100DF0004E00455854454E4445445F4D3230004303
:100E00005553544F4D5F4649524D574152455F55DA
:100E1000504C4F4144004C464E5F57524954450098
:100E20004C4F4E475F46494C454E414D450041555C
:100E3000544F5245504F52545F53445F53544154A2
:100E400055530053445F575249544500524550454D
:100E50004154004D554C54495F564F4C554D45003B
:100E60005344434152440050524F4D50545F5355E8
:100E700050504F525400484F53545F414354494FD0
:100E80004E5F434F4D4D414E445300454D455247F3
:100E9000454E43595F5041525345520043415345DB
:100EA0005F4C494748545F4252494748544E455366
:100EB0005300544F47474C455F4C494748545300F3
:100EC000534F4654574152455F504F574552004289
:100ED00055494C445F50455243454E54004C45568D
:100EE000454C494E475F44415441005A5F50524F70
:100EF00042450052554E4F5554004155544F4C45B4
:100F000056454C005052494E545F4A4F4200505291
:100F10004F4752455353004155544F5245504F523D
:100F2000545F54454D50004155544F5245504F5217
:100F3000545F504F5300564F4C554D455452494302
:100F400000454550524F4D0042494E4152595F466F
:100F5000494C455F5452414E534645520053455209
:100F600049414C5F584F4E5F584F464600464952E4
:100F70004D574152455F4E414D453A4D61726C6946
:100F80006E206275676669782D322E312E782028A2
:100F90004F637420323020323032322032313A33D3
:100FA000313A32372920534F555243455F434F441E
:100FB000455F55524C3A6769746875622E636F6D70
:100FC0002F4D61726C696E4669726D776172652F23
:100FD0004D61726C696E2050524F544F434F4C5FBD
:100FE00056455253494F4E3A312E30204D414348D9
:100FF000494E455F545950453A435231302D56328F
:101000002045585452554445525F434F554E543A2B
:101010003120555549443A63656465326132662D25
:10102000343161322D343734382D396231322D6309
:101030003535633632663336376666002F2F004DFE
:1010400031343520533C696E6465783E206F757489
:10105000206F662072616E67652028302D31290A65
:10106000005741524E494E4721204C6F77205A205D
:101070004A65726B206D6179206C65616420746FC4
:1010800020756E77616E7465642070617573657329
:101090002E0A002058003B200020204D61783A2085
:1010A00000200020204D696E3A2000203B200020C7
:1010B000204D32313120530046523A0020466C6FA9
:1010C000773A20003A200020536572766F20002086
:1010D0006F7574206F662072616E67650A005365D4
:1010E00072766F200050726F6265204F666673657E
:1010F00074205A0050726F6265204F666673657483
:10110000205A0064697300656E0043290A00616219
:101110006C656420286D696E2074656D70200043D5
:101120006F6C642065787472756465732061726594
:1011300020004D34323120696E636F7272656374C2
:1011400020706172616D6574657220757361676589
:101150000A004D65736820706F696E74206F757436
:10116000206F662072616E67650A00454550524FD8
:101170004D204F4B0A00290A0020746F20003F5A6F
:10118000206F7574206F662072616E67652028007D
:10119000290A0020746F20003F59206F7574206F5A
:1011A000662072616E676520282D00290A00207470
:1011B0006F20003F58206F7574206F662072616E3B
:1011C000676520282D004D383400446F6E6520700F
:1011D00072696E74696E672066696C650A004D37C6
:1011E00037004D333100496E76616C696420657853
:1011F0007472756465720A0020204D3230362058B2
:1012000000486F6D65206F66667365740044C3A9FE
:1012100063616C61676573206170706C697175C31F
:10122000A973004572723A20546F6F206661722173
:1012300000546F6F206661722066726F6D20726558
:10124000666572656E636520706F696E740A00432F
:1012500061703A0047322F47332062616420706129
:1012600072616D65746572730A00203B0020204D29
:101270003835312058005A2D50726F6265204F6604
:1012800066736574002569730025696D202569738F
:10129000002569682025696D20256973002569642A
:1012A000202569682025696D2025697300256979E5
:1012B00020256964202569682025696D20256973CA
:1012C000000A53746174733A2046696C616D656EEF
:1012D0007420757365643A20002C204C6F6E67652E
:1012E0007374206A6F623A2000546F74616C2074CA
:1012F000696D653A200053746174733A20002C20A4
:101300004661696C65643A20002C2046696E6973F9
:101310006865643A20005072696E74733A20005315
:10132000746174733A200020573A00526566726FF8
:101330006964697373656D656E740045312025536A
:101340000020573A00526566726F69642E206475FA
:10135000206C69742E2E2E004C697420656E2063FB
:101360006861756666652E2E2E00206661696C6563
:10137000642120426164206865617465722069643B
:101380000A00504944204175746F74756E650023DE
:10139000646566696E652044454641554C545F005E
:1013A0004B6420004B6920004B7020002066696E62
:1013B0006973686564212050757420746865206CB9
:1013C000617374204B702C204B6920616E64204B3C
:1013D0006420636F6E7374616E74732066726F6DD8
:1013E0002062656C6F7720696E746F20436F6E6644
:1013F000696775726174696F6E2E680A005049449E
:10140000204175746F74756E6500206661696C6546
:1014100064212074696D656F75740A005049442019
:101420004175746F74756E6500206661696C6564E2
:10143000212054656D706572617475726520746FDA
:101440006F20686967680A00504944204175746FCD
:1014500074756E6500504944204379636C65730070
:1014600025532025692F256900204B643A20002050
:101470004B693A2000204B703A200020436C617386
:1014800073696320504944200A002054753A2000B3
:10149000204B753A2000206D61783A2000206D695C
:1014A0006E3A200020643A200020626961733A207D
:1014B00000656E20636861756666652E2E2E0020BD
:1014C00073746172740A00504944204175746F74DA
:1014D000756E6500206661696C6564212054656DD8
:1014E000706572617475726520746F6F20686967CA
:1014F000680A00504944204175746F74756E650028
:10150000504944204175746F74756E650045727260
:101510003A207574663820666F6E74206E6F742082
:10152000696E697469616C697A65642E00457272CE
:101530003A207574663820666F6E74206E6F742062
:10154000696E697469616C697A65642E00457272AE
:101550003A207574663820666F6E74206E6F742042
:10156000696E697469616C697A65642E00453A0038
:101570004C69740043616973736F6E002568753A36
:1015800025303268750025303268753A253032686A
:10159000750025303268752725303268750025685A
:1015A00075642025303268753A2530326875002020
:1015B00020202020202000202020200065727200A2
:1015C0001FE02010201020101020102020102010CC
:1015D00030300840048003001FE03FF03FF03FF050
:1015E0001FE01FE03FF03FF03FF00FC00780030017
:1015F0003FFFF038007030FC3020FC1020781020C5
:1016000030102C00D02E31D02F7BD02F7BD02E311C
:10161000D02C00D020301020781020FC1030FC306E
:101620003800703FFFF03FFFF03800703186302304
:1016300087102787902F87D02F03D0203010207855
:10164000102078102030102F03D02F87D0278790BC
:101650002387103186303800703FFFF01FFFF81FDE
:10166000FFF804104002082002082004104008205F
:10167000801041001041000820800410400000004C
:101680001FFFF81FFFF8496D70722E20616E6E7596
:101690006CC3A965004D3235004D69736520656ED8
:1016A0002070617573652E2E2E004D323400454535
:1016B00050524F4D2056657273696F6E204572729D
:1016C0006F7200454550524F4D20496E6465782039
:1016D0004572726F7200454550524F4D2043524340
:1016E000204572726F72003F0049676E6F726572BB
:1016F00000526573657400496E697469616C697341
:10170000657220454550524F4D0000FE0003FF809A
:1017100007C7C00701E00000E00000F0000070040F
:1017200000700E00701F00703F80F00E00E00F018F
:10173000E007C7C003FF8000FE0000FE0003FF803B
:1017400007C7C00F01E00E00E03F80F01F00700EE1
:1017500000700400700000700000F00000E007015D
:10176000E007C7C003FF8000FE000E000E000E0061
:101770000E000E000E000E000E007FC03F801F0006
:101780000E00040004000E001F003F807FC00E000A
:101790000E000E000E000E000E000E000E00FFFFE9
:1017A000FF7F80FFC0FFC0FFC07F807F80FFC0FF42
:1017B000C0FFC03F001E000C0044C3A963616C6100
:1017C0006765205A004469616DC3A874726520661C
:1017D000696C2E004520656E206D6DC2B3004D33DF
:1017E0003033205531204525692053256900504963
:1017F00044204175746F74756E65202A0050494409
:101800002D44202A005049442D49202A00504944A3
:101810002D50202A002008204661637465757200EF
:101820002008204D6178002008204D696E0041722B
:1018300072C3AA74004D61726368650054656D706F
:101840002E204175746F2E00566D696E20636F7582
:10185000727365005669742E204D696E0056697466
:101860002E204D61782040004D617820416363C394
:10187000A96C2E2045004D617820416363C3A96C9B
:101880002E2040004163632E636F757273650041C3
:1018900063632E72C3A97472616374696F6E0041D1
:1018A0006363C3A96CC3A9726174696F6E0056400B
:1018B000206A65726B0044C3A963616C616765202F
:1018C0005A0044C3A963616C61676520590044C331
:1018D000A963616C61676520580040207061732FB7
:1018E0006D6D00436F6E6669672E206176616E6371
:1018F000C3A965003F00416E6E756C657200496E4C
:1019000069742E004D34323800496E697469616C17
:101910006973657220454550524F4D0046696C61B0
:101920006D656E740054656D70C3A97261747572D3
:1019300065005061732F6D6D00506F736974696F2E
:101940006E20736F6E6465205A004A65726B0041A9
:101950006363C3A96CC3A9726174696F6E004D6142
:10196000782056C3A96C6F636974C3A90052C3A9D8
:10197000676C2E2064C3A963616C206F726967690C
:101980006E6500436F6E66696775726174696F6E2C
:1019900000456E72656769737472657220636F6E5D
:1019A0006669672E004368617267657220636F6EB7
:1019B0006669672E0044C3A963616C616765205A3C
:1019C0000048617574657572206C697373C3A9658D
:1019D00000417272C3AA74004D617263686500525F
:1019E000C3A9676C6572204E69762E206C697400FD
:1019F0004E6976656175206475206C6974004732A4
:101A0000394E00473239004F726967696E6520614F
:101A100075746F004D6F7576656D656E74003F006F
:101A2000416E6E756C6572206F626A6574004E6FF0
:101A30006E004F756900416E6E756C6572206F6245
:101A40006A6574203D004D656E75207072696E6325
:101A50006970616C004D6F64652053570052616E70
:101A60006765720044C3A9706C6F79657200536535
:101A70006C662D54657374005265736574004C690F
:101A8000740042757365005669742E202076656E69
:101A900074696C2E202000436F6E666967757261F1
:101AA00074696F6E0052657374617572657220643B
:101AB000C3A96661757473004368617267657220BB
:101AC000636F6E6669672E00456E72656769737431
:101AD00072657220636F6E6669672E0052C3A967D4
:101AE0006C6572207072C3A963682E202400424C7A
:101AF000546F7563680044C3A963616C61676520B6
:101B00005A00436F6E6669672E206176616E63C30B
:101B1000A965004D656E75207072696E63697061AC
:101B20006C003E2000256C642E25696D00546F7496
:101B3000616C2066696C616D656E74003E200049C1
:101B40006D70722E206C61202B206C6F6E67756536
:101B5000003E200054707320696D70722E20746FE7
:101B600074616C005465726D696EC3A96573003A47
:101B700020004E62726520696D7072657373696FC3
:101B80006E73003A2000000C0F00FE07022503BB15
:101B900001FFFE0AFE08FE05080806000040F0C826
:101BA0008888987810050808060000C0F88888889A
:101BB0008888F80505050600012030F83020050862
:101BC000080600002070F820202020E00509090602
:101BD00000FF2070A8A8B8888870200705050700B6
:101BE00001D86C366CD80509090600FFF8A888886A
:101BF000888888A8F8050A0A0600FE205050505030
:101C000088A8A8887003030306000340A040FFFFD4
:101C1000FFFFFFFFFFFFFFFFFFFFFFFFFFFFFFFFD4
:101C2000FFFFFFFF0000000605FF01070706020097
:101C300080808080800080030303060105A0A0A0AF
:101C400005060606000050F85050F8500509090630
:101C500000FF2070A8A07028A870200507070600C4
:101C600000C8C8102040989805070706000040A04B
:101C7000A040A89068010303060205808080030944
:101C8000090601FF20404080808040402003090970
:101C90000601FF80404020202040408005070706C5
:101CA000000020A8702070A820050505060001206E
:101CB00020F820200203030601FFC0408005010137
:101CC000060003F8020202060100C0C0050707066D
:101CD0000000081010204040800507070600007033
:101CE0008898A8C8887003070706010040C04040D4
:101CF0004040E0050707060000708808102040F803
:101D0000050707060000F808103008887005070767
:101D100006000010305090F810100507070600006C
:101D2000F880F0080888700507070600003040803A
:101D3000F0888870050707060000F80810102020BA
:101D400020050707060000708888708888700507DE
:101D500007060000708888780810600205050601F3
:101D600000C0C000C0C00206060601FFC0C000C01F
:101D70004080030505060101204080402005030343
:101D8000060002F800F80305050601018040204026
:101D90008005070706000070881020200020050736
:101DA000070600007088B8A8B8807005070706000D
:101DB00000708888F8888888050707060000F048C2
:101DC00048704848F005070706000070888080804A
:101DD0008870050707060000F04848484848F005A5
:101DE0000707060000F88080F08080F805070706E6
:101DF0000000F88080F080808005070706000070F2
:101E0000888080988870050707060000888888F811
:101E1000888888030707060100E04040404040E012
:101E2000050707060000381010101090600507071E
:101E30000600008890A0C0A0908805070706000053
:101E4000808080808080F805070706000088D8A879
:101E5000888888880507070600008888C8A89888A9
:101E6000880507070600007088888888887005073D
:101E700007060000F08888F08080800507070600CC
:101E80000070888888A89068050707060000F08819
:101E900088F0A09088050707060000708880700809
:101EA0008870050707060000F82020202020200564
:101EB0000707060000888888888888700507070655
:101EC0000000888888885050200507070600008891
:101ED000888888A8A8500507070600008888502031
:101EE0005088880507070600008888502020202099
:101EF000050707060000F80810204080F8030909CC
:101F00000601FFE080808080808080E00507070672
:101F10000000804040201010080309090601FFE07E
:101F200020202020202020E005030306000520506B
:101F3000880501010600FEF8030303060105804041
:101F40002005050506000070087888780507070653
:101F500000008080F0888888F00505050600007084
:101F60008080887005070706000008087888888840
:101F7000780505050600007088F0807005070706E3
:101F80000000304840E04040400507070600FE7072
:101F90008888887808700507070600008080F08828
:101FA0008888880307070601004000C0404040E0E1
:101FB0000409090601FE1000301010101090600591
:101FC000070706000080808890E0908803070706D6
:101FD0000100C04040404040E0050505060000D03B
:101FE000A8A8A8A8050505060000B0C88888880527
:101FF000050506000070888888700507070600FE42
:10200000F0888888F080800507070600FE788888B9
:1020100088780808050505060000B0C8808080059E
:10202000050506000078807008F005070706000027
:102030002020F82020201805050506000088888843
:102040009868050505060000888888502005050564
:102050000600008888A8A8500505050600008850DD
:102060002050880507070600FE8888885020408099
:10207000050505060000F8102040F80309090601CF
:10208000FF2040404080404040200109090602FFF7
:102090008080808080808080800309090601FF8025
:1020A000404040204040408005030306000248A80D
:1020B00090FFFFFFFFFFFFFFFFFFFFFFFFFFFFFF9F
:1020C000FFFFFFFFFFFFFFFFFFFFFFFFFFFFFFFF20
:1020D000FFFF0000000605FF010707060200800061
:1020E00080808080800507070600FF2070A8A0A8D8
:1020F0007020050707060000304840E04048B00562
:102100000505060000A8508850A80507070600002E
:102110008850F820F8202001070706020080808000
:102120000080808004080806010070806090906044
:1021300010E0030101060107A0060707060000786A
:1021400084B4A4B4847803050506010460A060008B
:10215000E00505050600002850A0502805030306E9
:102160000001F80808030101060103E0060707065D
:1021700000007884B4A4A48478050101060007F85F
:10218000040404060105609090600507070600003E
:102190002020F8202000F803050506010440A020B7
:1021A00040E0030505060104C0204020C0030303EE
:1021B0000601052040800507070600FE88888898EC
:1021C000E8808005080806000078E8E8E868282824
:1021D00028020202060203C0C00302020601FE201A
:1021E000C003050506010440C04040E003050506A4
:1021F000010540A04000E0050505060000A05028AC
:1022000050A0050A0A06000040C048506050B05077
:102210007810050A0A06000040C048506050A8081F
:102220001038050A0A060000C0204830E050B050BF
:102230007810050707060000200020204088700560
:102240000A0A060000402000708888F888888805FF
:102250000A0A060000102000708888F8888888051F
:102260000A0A060000205000708888F888888805CF
:102270000A0A06000068B000708888F88888880517
:1022800009090600005000708888F8888888050AC7
:102290000A060000205020708888F8888888050782
:1022A0000706000078A0A0F0A0A0B8050909060064
:1022B000FE708880808088701060050A0A06000021
:1022C000402000F88080F08080F8050A0A060000AF
:1022D000102000F88080F08080F8050A0A060000CF
:1022E000205000F88080F08080F805090906000081
:1022F0005000F88080F08080F8030A0A0601008010
:102300004000E04040404040E0030A0A060100204F
:102310004000E04040404040E0030A0A060100401F
:10232000A000E04040404040E0030909060100A051
:1023300000E04040404040E00507070600007048CC
:1023400048E8484870050A0A06000068B000888816
:10235000C8A8988888050A0A0600004020007088EE
:102360008888888870050A0A060000102000708896
:102370008888888870050A0A060000205000708846
:102380008888888870050A0A06000068B00070888E
:1023900088888888700509090600005000708888C0
:1023A000888888700505050600018850205088053A
:1023B00009090600FF087098A8A8A8C87080050A37
:1023C0000A06000040200088888888888870050AEE
:1023D0000A06000010200088888888888870050A0E
:1023E0000A060000205000888888888888700509BF
:1023F00009060000500088888888888870050A0AC5
:1024000006000010200088885020202020040707A4
:1024100006010080E0909090E0800507070600002C
:10242000708890A09088B005080806000040200041
:1024300070087888780508080600001020007008E9
:102440007888780508080600002050007008788811
:102450007805080806000068B000700878887805DC
:1024600007070600005000700878887805080806FD
:1024700000002050207008788878050505060000C7
:10248000702870A0780507070600FE7088808870A5
:1024900010600508080600004020007088F0807079
:1024A0000508080600001020007088F080700508FC
:1024B000080600002050007088F0807005070706AD
:1024C000000050007088F08070030808060100804A
:1024D0004000C0404040E0030808060100204000E2
:1024E000C0404040E003080806010040A000C04092
:1024F0004040E0030707060100A000C0404040E064
:102500000509090600005020500878888888700561
:10251000080806000068B000B0C888888805080868
:1025200006000040200070888888700508080600B2
:1025300000102000708888887005080806000020B8
:102540005000708888887005080806000068B00090
:10255000708888887005070706000050007088881A
:1025600088700505050600012000F8002005050516
:102570000600007898A8C8F005080806000040206A
:1025800000888888887005080806000010200088E8
:102590008888887005080806000020500088888810
:1025A0008870050707060000500088888888700535
:1025B0000A0A0600FE102000888888502040800506
:1025C00009090600FE8080F0888888F0808005096F
:1025D000090600FE50008888885020408041425300
:1025E00000504C41003132300035004245443A2021
:1025F0004550434F53203130304B0050726F74655B
:102600006374696F6E206163746976650054656DEB
:1026100070204D6178003235350054656D70204D65
:10262000696E00350045313A204550434F53203103
:1026300030304B00416C696D2E0047656E657269E4
:10264000630050726F746F636F6C6500312E3000E1
:10265000426175647300323530303030004372654A
:10266000616C69747933442052414D5053004E6976
:10267000766561752062696C696EC3A9616972656E
:1026800000457874727564657572730031006D6110
:10269000726C696E66772E6F726700435231302D0F
:1026A000563200323032322D31302D3230006275E8
:1026B000676669782D322E312E78004D61726C6913
:1026C0006E0053746174732E20696D7072696D6150
:1026D0006E746500546865726D697374616E6365CC
:1026E0007300496E666F7320636172746500496E92
:1026F000666F7320696D7072696D616E7465004DEF
:10270000656E75207072696E636970616C003F0060
:102710005265746F75720053746F7000506173204E
:102720006465206DC3A964696100496D7072657349
:1027300073696F6E2053440041637475616C6973F3
:102740006572206DC3A9646961004D323100496E24
:10275000666F7320696D7072696D616E7465004398
:102760006F6E66696775726174696F6E0054656D2E
:1027700070C3A9726174757265004D6F7576656D71
:10278000656E740052657072656E64726520696D65
:1027900070722E00416E6E756C6572206F626A6594
:1027A000740052C3A9676C657200417272C3AA7447
:1027B000657220696D70722E0050617573652069B5
:1027C0006D7072657373696F6E00537572766569AB
:1027D0006C6C6572003F0044C3A96D6172726572D2
:1027E00020696D7072657373696F6E00416E6E75EE
:1027F0006C657200496D7072696D65720043616E3F
:102800006E6F7420656E7465722073756264697290
:102810003A200002202E2E004D656E7520707269E0
:102820006E636970616C002100427573652074727B
:102830006F702066726F696465005265746F75729F
:102840000050726F63C3A964657200457874727535
:10285000646572004D6F7576656D656E74004172CA
:1028600072C3AA746572206D6F7465757273004DC2
:10287000383400456361727420736F6E6465205A4A
:10288000204D3438004732384F0A4D34382050310B
:10289000300052C3A9676C6572204E69762E206C99
:1028A0006974004732385A0047323859004F72690C
:1028B00067696E652040206175746F004732385833
:1028C000004F726967696E65206175746F004732E9
:1028D00038004D656E75207072696E636970616C49
:1028E000005072C3A963682E2024206C69740050C4
:1028F00072C3A963682E2024206275736500546535
:102900006D70C3A972617475726500E125DD255291
:102910006566726F69646972005072C3A963686109
:102920007566666167652024005669742E202076DE
:10293000656E74696C2E2020004C697400427573BA
:1029400065004D656E75207072696E636970616CAB
:102950000044C3A963616C616765205A00466C75C9
:1029600078005669742E202076656E74696C2E206E
:1029700020004C6974004275736500566974657374
:102980007365004D656E75207072696E6369706164
:102990006C004563686563206F726967696E6500E6
:1029A0006F70656E00545249474745524544003A9E
:1029B00020007A5F6D696E00795F6D696E00785FE7
:1029C0006D696E005265706F7274696E6720656E16
:1029D0006473746F70207374617475730A0020746B
:1029E0006F6F206C6F6E6720657874727573696F96
:1029F0006E2070726576656E7465640A0020636F80
:102A00006C6420657874727573696F6E207072657E
:102A100076656E7465640A004F726967696E652039
:102A2000257325732573205072656D6965720000EA
:102A300000000000000000000000005761726E6995
:102A40006E673A20486F6D696E672042756D702021
:102A500044697669736F72203C20310A00020204D7
:102A600000009B4300009B430000C8430000A040BF
:102A70000000A04000000040000000010000000134
:102A800000008000555555000000400033333300EE
:102A9000AAAA2A004992240000002000C7711C0045
:102AA00099991900D1451700555515003BB11300F0
:102AB0002449120011111100000010000F0F0F0027
:102AC000E3380E0043790D00CCCC0C00C3300C0071
:102AD000E8A20B0064210B00AAAA0A00703D0A00BC
:102AE0009DD80900427B090092240900DCD308002C
:102AF000888808001042080000000800F0C10700A4
:102B00008787070075500700711C07003EEB060021
:102B1000A1BC06006990060066660600703E0600CD
:102B20006118060017F4050074D105005BB00500BC
:102B3000B290050062720500555505007839050010
:102B4000B81E0500050505004EEC040087D40400FE
:102B5000A1BD040090A7040049920400C17D0400B7
:102B6000EE690400C7560400444404005C320400CB
:102B70000821040041100400000004003FF003009D
:102B8000F8E0030026D20300C3C30300CCB5030062
:102B90003AA803000A9B0300388E0300C08103009B
:102BA0009F750300D0690300505E03001D530300AE
:102BB00034480300913D030033330300162903001A
:102BC000381F030097150300300C030003030300B4
:102BD0000BFA020049F10200BAE802005CE00200D0
:102BE0002DD802002DD0020059C80200B0C002004A
:102BF00031B90200DAB10200AAAA0200A0A30200C1
:102C0000BC9C0200FA9502005C8F0200DF88020083
:102C100082820200457C02002776020027700200B3
:102C2000436A02007C640200D05E02003F59020049
:102C3000C8530200FFFDFCFAF8F6F4F2F0EEECEAFD
:102C4000E9E7E5E3E1E0DEDCDAD9D7D5D4D2D0CFCD
:102C5000CDCBCAC8C7C5C3C2C0BFBDBCBAB9B7B661
:102C6000B4B3B2B0AFADACAAA9A8A6A5A4A2A1A0C6
:102C70009E9D9C9A99989795949392908F8E8D8B08
:102C80008A8988878684838281807F7E7D7B7A792A
:102C90007877767574737271706F6E6D6C6B6A692C
:102CA0006867666564636261605F5E5D5C5B5A591C
:102CB00058585756555453525150504F4E4D4C4BF7
:102CC0004A4A4948474646454443424241403F3EBE
:102CD0003E3D3C3B3B3A3938383736353534333274
:102CE000323130302F2E2E2D2C2B2B2A292928271C
:102CF0002726252524232322212120201F1E1E1DB7
:102D00001C1C1B1B1A191918181716161515141345
:102D10001312121111100F0F0E0E0D0D0C0C0B0AC9
:102D20000A09090808070706060505040403030243
:102D30000201000053544F5050C389005072696E15
:102D40007465722073746F7070656420647565209B
:102D5000746F206572726F72732E204669782074CA
:102D60006865206572726F7220616E64207573658C
:102D7000204D39393920746F207265737461727413
:102D80002E202854656D70657261747572652069B6
:102D9000732072657365742E2053657420697420E6
:102DA00061667465722072657374617274696E67AE
:102DB000290A00206572726F72202D20726573746B
:102DC0006172742077697468204D3939390A00427C
:102DD0004C546F7563680021212053544F50206379
:102DE000616C6C65642062656361757365206F66F4
:102DF000200000009B4300009B430000C8430000EC
:102E000000000000000000000000436F6E6669676C
:102E10002E20656E72656769737472C3A965002997
:102E20000A002062797465733B206372632000534B
:102E3000657474696E67732053746F7265642028BB
:102E40000048617264636F646564204465666175FF
:102E50006C742053657474696E6773204C6F616481
:102E600065640020286D6D2900203B204C65766547
:102E70006C696E67200020204D34323020530041B1
:102E800075746F20426564204C6576656C696E6769
:102E90000020460020480020204D313435205300CA
:102EA0004D6174657269616C20686561747570202C
:102EB000706172616D657465727300204A00202034
:102EC000473239205720490020204D3134392043E2
:102ED000203B20556E69747320696E2043656C73C6
:102EE0006975730A0054656D7065726174757265F9
:102EF00020556E697473002020473231203B004C0E
:102F0000696E65617220556E697473004545505253
:102F10004F4D206461746173697A65206572726FC8
:102F2000722E0A00290A002062797465733B2063BF
:102F3000726320002073746F72656420736574740B
:102F4000696E67732072657472696576656420289E
:102F500000202863616C63756C6174656429210AC3
:102F60000020213D2000454550524F4D2043524303
:102F7000206D69736D61746368202D202873746FF0
:102F80007265642920002053697A653A2000496EF1
:102F90006465783A200000803B4400803B44000098
:102FA0007041000096420000A0420000A0420000D4
:102FB000C8430000BA42D0070000D00700006400F8
:102FC000000088130000204D61726C696E3D563818
:102FD00037290A00454550524F4D20766572736976
:102FE0006F6E206D69736D6174636820284545506C
:102FF000524F4D3D0020436F756E7420583A004C7F
:103000006974004531004500626564002C207379C5
:103010007374656D2073746F7070656421204865EA
:10302000617465725F49443A2000457272205445CC
:103030004D502E204D4158004D415854454D502083
:1030400074726967676572656400457272206465B1
:1030500020636861756666650048656174696E67BE
:10306000206661696C6564004D353234004D313144
:10307000322053687574646F776E00457272205405
:10308000454D502E204D494E004D494E54454D5012
:1030900020747269676765726564004572722054B6
:1030A0004845524D4951554500546865726D616CF3
:1030B0002052756E6177617900202F002042403ADE
:1030C0000020403A007C3C3E5E2B3D3F2F5B5D3B49
:1030D0002C2A225C004D6564696120496E69742068
:1030E0004661696C0053442063617264206F6B0A0F
:1030F000006F70656E526F6F74206661696C6564F5
:103100000A00766F6C756D652E696E697420666154
:10311000696C65640A004E6F2053442063617264D9
:103120000A00534420636172642072656C656173A8
:1031300065640A000A4D3234004D32332025730095
:103140002E0A006F70656E206661696C65642C20C4
:1031500046696C653A200046696C652073656C654C
:10316000637465640A002053697A653A20004669F1
:103170006C65206F70656E65643A2000454E442092
:10318000535542524F5554494E450A002220706F04
:1031900073002220706172656E743A2200535542AA
:1031A000524F5554494E452043414C4C2074617256
:1031B0006765743A220053756263616C6C204F76C8
:1031C0006572666C6F770045786365656465642039
:1031D0006D617820535542524F5554494E452064F5
:1031E000657074683A0057726974696E6720746F0D
:1031F0002066696C653A2000667265736800646FCA
:10320000696E67002066696C653A20004E6F772012
:10321000002F6175746F25632E67006D61726C6994
:103220006E66772E6F7267006275676669782D32F9
:103230002E312E78001FFFFFFFFFFFFF6000000010
:103240000001FF400000000000FF800000000000BF
:103250007F83CF00000C303F87FF80000C301F863B
:103260007980000C000F8C30C7838C30E78C30CF16
:10327000C7CC31F38C30DCECEC33B98C30D86C6CCF
:1032800033198C30D06C0C33198C30D86C0C33194A
:103290008C30DC6C0E3B198C30CF7C079F198C3046
:1032A000C77C038F1940000000000002600000008E
:1032B0000000061FFFFFFFFFFFF870012C019001C7
:1032C0002701B0012201C0011D01F0011801100207
:1032D000130130020E016002090190020401C002D4
:1032E000FF000003FA004003F5008003F000D00364
:1032F000EB002004E6007004E100E004DC0040057F
:10330000D700C005D2004006CD00D006C800800717
:10331000C3003008BE00F008B900C009B400B00A0C
:10332000AF00B00BAA00D00CA500000EA000500FFB
:103330009B00C01096005012910000148C00C01524
:103340008700B0178200B0197D00D01B7800001EE6
:10335000730040206E0090226900F0246400402732
:103360005F0090295A00E02B5500102E50002030AD
:103370004B0010324600E033410090353C001037DE
:10338000370070383200A0392D00B03A2800A03B39
:103390002300603C1E00103D1900903D1400103EBB
:1033A0000F00703E0A00C03E0500003F0000403F95
:1033B000FBFF803FF6FFC03FF1FF2020506C616EA5
:1033C0006E657242756666657242797465733A20FD
:1033D000002046726565204D656D6F72793A200058
:1033E00020436F6D70696C65643A204F63742032BE
:1033F0003020323032320A00204C61737420557014
:1034000064617465643A20323032322D31302D32AD
:1034100030207C20417574686F723A20286E6F6E80
:10342000652C2064656661756C7420636F6E6669D7
:1034300067290A004D61726C696E20627567666962
:10344000782D322E312E780A0020536F6674776102
:1034500072652052657365740A0020576174636851
:10346000646F672052657365740A002042726F773B
:103470006E206F75742052657365740A002045785C
:103480007465726E616C2052657365740A00506FCA
:1034900077657255700A0073746172740A0047325E
:1034A000385859004D31303031006572726F7220DA
:1034B00077726974696E6720746F2066696C650A3B
:1034C00000446F6E6520736176696E672066696C73
:1034D000652E0A004D323900427574C3A965730028
:1034E00025532025632025632025632025630020A4
:1034F0005A3A0020593A0020583A00656E647374B5
:103500006F7073206869743A200000000A0B02098A
:103510000C0D0E080703040100000000000000006D
:10352000000000000000000000000000000000009B
:103530000000000000001211100000000000000058
:10354000000000000000000000000000000000007B
:1035500024F404D9201BC40C5C0E9804C4095F0237
:1035600065077101F405F900FB04B3004804870006
:10357000C10369005803550003034500BE023A0029
:103580008402310053022A0029022500040220008F
:10359000E4011C00C8011900AF01170098011400D4
:1035A00084011300710110006101100051010E002F
:1035B00043010D0036010B002B010B0020010B0015
:1035C000150109000C01090003010800FB000800B7
:1035D000F3000800EB000700E4000600DE00060030
:1035E000D8000600D2000600CC000500C700050088
:1035F000C2000500BD000400B9000400B5000400CD
:10360000B1000400AD000400A9000400A5000300FF
:10361000A20003009F0004009B0003009800030029
:103620009500020093000300900003008D0002004B
:103630008B00030088000200860002008400030063
:10364000810002007F0002007D0002007B0002007A
:103650007900020077000100760002007400020089
:1036600072000100710002006F0002006D00010095
:103670006C0002006A00010069000200670001009E
:1036800066000100650001006400020062000100A4
:1036900061000100600001005F0002005D000100A8
:1036A0005C0001005B0001005A00010059000100AC
:1036B00058000100570001005600010055000100AC
:1036C00054000100530000005300010052000100AB
:1036D00051000100500001004F0001004E000000A9
:1036E0004E0001004D0001004C0001004B000000A5
:1036F0004B0001004A0001004900010048000000A1
:10370000480001004700010046000000460001009B
:103710004500000045000100440001004300000096
:10372000430001004200000042000100410000008F
:1037300041000100400001003F0000003F00010087
:103740003E0000003E0001003D0000003D00010081
:103750003C0000003C0000003C0001003B00000079
:103760003B0001003A0000003A000100390000006F
:103770003900010038000000380000003800010066
:10378000370000003700010036000000360000005E
:103790003600010035000000350000003500010052
:1037A0003400000034000000340001003300000049
:1037B000330000003300010032000000320000003E
:1037C0003200010031000000310000003100010032
:1037D0003000000030000000300001002F00000029
:1037E0002F0000002F0000002F0001002E0000001D
:1037F0002E0000002E0001002D0000002D00000012
:103800002D0000002D0001002C0000002C00000005
:103810002C0000002C0001002B0000002B000000F9
:103820002B0000002B0001002A0000002A000000ED
:103830002A0000002A0001002900000029000000E1
:1038400029000000290000002900010028000000D4
:1038500028000000280000002800000028000100C7
:1038600027000000270000002700000027000000BC
:1038700027000100260000002600000026000000AE
:1038800026000000260001002500000025000000A1
:103890002500000025000000250000002500010093
:1038A0002400000024000000240000002400000088
:1038B000240001002300000023000000230000007A
:1038C000230000002300000023000000230001006B
:1038D0002200000022000000220000002200000060
:1038E0002200000022000100210000002100000051
:1038F0002100000021000000210000002100000044
:103900002100010020000000200000002000000035
:103910002000000020000000200000002000000027
:10392000200001001F0000001F0000001F00000019
:103930001F0000001F0000001F0000001F0001000A
:103940001E0000001E0000001E0000001E000000FF
:1039500024F4D43050C38E20C2A24017828B701141
:10396000127A910D816CD90AA861E108C7586607DF
:10397000615143061E4B5D05C145A7041A41110460
:10398000093D9803713931034036DB0265339102FA
:10399000D4305402802E1D02632CEE01752AC5011D
:1039A000B028A001102781018F2564012B244B0131
:1039B000E0223401AC211F018D200D01801FFC008D
:1039C000841EED00971DDF00B81CD200E61BC60068
:1039D000201BBC00641AB200B219A8000A19A0008A
:1039E0006A189900D117910040178B00B516840012
:1039F00031167E00B31579003A157300C7146F00B5
:103A000058146A00EE1366008813630025135E00E5
:103A1000C7125B006C12570015125400C1115100FF
:103A200070114F0021114B00D61049008D10470036
:103A30004610440002104200C00F4000800F3E00BC
:103A4000420F3C00060F3B00CB0E3800930E3700B0
:103A50005C0E3500270E3400F30D3200C10D31002D
:103A6000900D3000600D2E00320D2D00050D2C0044
:103A7000D90C2B00AE0C2900850C29005C0C27000A
:103A8000350C27000E0C2600E80B2400C40B240084
:103A9000A00B23007D0B23005A0B2100390B2100C2
:103AA000180B2000F80A1F00D90A1E00BB0A1E00CE
:103AB0009D0A1D00800A1D00630A1C00470A1B00A6
:103AC0002C0A1B00110A1A00F7091A00DD09190057
:103AD000C4091900AB091900920917007B091800E5
:103AE000630917004C091600360916002009160054
:103AF0000A091500F5081500E0081400CC081400A8
:103B0000B8081400A4081400900813007D081200DF
:103B10006B08130058081200460812003408110000
:103B2000230811001208110001081100F00710000D
:103B3000E0071000D0071000C0071000B0070F000A
:103B4000A107100091070E0083070F0074070F00F4
:103B500065070E0057070E0049070E003B070D00D2
:103B60002E070E0020070D0013070D0006070D009D
:103B7000F9060C00ED060D00E0060C00D4060C0062
:103B8000C8060C00BC060C00B0060C00A4060B0016
:103B900099060C008D060B0082060B0077060B00C1
:103BA0006C060B0061060A0057060B004C060A0063
:103BB00042060A0038060A002E060A0024060A00F9
:103BC0001A060A001006090007060A00FD0509008A
:103BD000F4050900EB050900E2050900D905090013
:103BE000D0050900C7050900BE050900B505080094
:103BF000AD050800A50509009C050800940508000E
:103C00008C050800840508007C0508007405080080
:103C10006C050700650508005D05070056050800EE
:103C20004E05070047050700400508003805070056
:103C3000310507002A050700230507001C050600BB
:103C4000160507000F050700080506000205070016
:103C5000FB040600F5040700EE040600E804060075
:103C6000E2040700DB040600D5040600CF040600CA
:103C7000C9040600C3040600BD040600B70406001C
:103C8000B1040500AC040600A6040600A00405006B
:103C90009B04060095040500900406008A040500B4
:103CA00085040500800406007A04050075040500FB
:103CB000700405006B04050066040500610405003E
:103CC0005C04050057040500520405004D0405007E
:103CD00048040500430405003E0404003A040500BE
:103CE00035040500300404002C04050027040400FA
:103CF000230405001E0404001A0404001604050031
:103D0000110404000D040400090405000404040067
:103D100000040400FC030400F8030400F40304009E
:103D2000F0030400EC030400E8030400E4030400CF
:103D3000E0030400DC030400D8030400D4030400FF
:103D4000D0030400CC030400C8030300C503030030
:103D5000393000003325000087190000B00F000043
:103D6000DB080000BD040000740200003F010000F9
:103D700044C3A9706C6163657220246D6D00302EA0
:103D80003032350044C3A9706C6163657220302EF7
:103D9000316D6D0044C3A9706C6163657220316D33
:103DA0006D0044C3A9706C616365722031306D6D24
:103DB0000044C3A9706C6163657220756E206178E0
:103DC00065004578747275646572202A0044C3A941
:103DD000706C6163657220400020746F6F206C6F9F
:103DE0006E6720657874727573696F6E2070726586
:103DF00076656E7465640A0020636F6C6420657874
:103E000074727573696F6E2070726576656E746515
:103E1000640A0050726F62696E67204661696C6562
:103E2000640A00456368656320736F6E64650020F3
:103E30005A3A200020593A200042656420583A201E
:103E400000FFFFFF43616E6E6F74206F70656E2020
:103E5000737562646972200000002200250028004A
:103E60002B002E0031003400020100000501080182
:103E70000B0100002100240027002A002D00300043
:103E8000330001010000040107010A0105050505D1
:103E9000070508080808020202020A0A08080404C2
:103EA00004040101010101010101030303030303F0
:103EB0000303040707070C0C0C0C0C0C0C0C02027F
:103EC000020206060606060606060B0B0B0B0B0B7C
:103ED0000B0B010210202008081020401020408009
:103EE00002010201080402010102040810204080BE
:103EF000804020100804020180040201804020104C
:103F00000804020108040201010204081020408094
:103F10000102040810204080204500205A0020594A
:103F20000020204D39322058005374657073207082
:103F3000657220756E697400220A00556E6B6E6F93
:103F4000776E20636F6D6D616E643A2022002042AF
:103F5000002050006F6B0020453A00205A3A0020A4
:103F6000593A00583A006F6B0A00526573656E64E7
:103F70003A2000435231302D5632207072C3AA7459
:103F8000652E00496D7072657373696F6E00496DBF
:103F900070722E20656E2070617573650000C4011B
:103FA000280111241FBECFEFD1E2DEBFCDBF00E05C
:103FB0000CBF84B78093121714BE0FB6F894A8955F
:103FC00080916000886180936000109260000FBE55
:103FD00013E0A0E0B2E0E2E3F8E702E00BBF02C0CA
:103FE00007900D92A639B107D9F727E1A6E9B3E00A
:103FF00001C01D92A231B207E1F71FE1C0EDDFE180
:1040000000E006C021970109802FFE010F948D3B2F
:10401000CF3CD10780E00807A9F70F946C230D94DB
:10402000073C0C940000CF93DF93EC01CB01BA0165
:104030000F94983129EC38EC48EC5EE30F94333957
:1040400020E030E040E05FE30F9439380F94AC3962
:104050006883DF91CF910895E091B10886E0E8028E
:10406000F0011124EB58F74F80918B0890E0958375
:10407000848308958F929F92AF92BF92CF92DF92E6
:10408000EF92FF92CF936B017C0120E030E0A90119
:104090000F94913187FD9FC06DEB77E386E095E348
:1040A000A70196010F9439386B017C0120E030E0C4
:1040B00040E251E40F94F73120E030E048EC52E464
:1040C0000F94F7314B015C0120E030E0A901C701FA
:1040D000B6010F94913120E030E040EA50E487FFD0
:1040E00004C020E030E040EA50ECC501B4010F9478
:1040F000393820E030E040E251E40F9433390F9436
:10410000A5396B017C018BE2F7FE09C0F094E094C5
:10411000D094C094C11CD11CE11CF11C8DE2809391
:104120008F08C701B60120E137E240E050E00F946C
:10413000F7378AE0882E912CA12CB12CCA01B90145
:10414000A50194010F94F737605D60939008C70153
:10415000B60128EE33E040E050E00F94F737CA0193
:10416000B901A50194010F94F737605D6093910840
:10417000C701B60124E630E040E050E00F94F73785
:10418000CA01B901A50194010F94F737605D6093EE
:1041900092088EE280939308C701B601A5019401AD
:1041A0000F94F737C62FCA01B901A50194010F94E6
:1041B000F737605D60939408C05DC09395088FE801
:1041C00098E0CF91FF90EF90DF90CF90BF90AF90AD
:1041D0009F908F9008956DEB77E386E095EB60CF2D
:1041E0008F929F92AF92BF92CF92DF92EF92FF9207
:1041F0006B017C0120E030E0A9010F94913187FD33
:104200006BC06DEB77E386E095E3A70196010F9411
:1042100039386B017C0120E030E040E251E40F943A
:10422000F73120E030E040E251E40F94F7314B01E8
:104230005C0120E030E0A901C701B6010F94913183
:1042400020E030E040EA50E487FF04C020E030E0A6
:1042500040EA50ECC501B4010F94393820E030E059
:1042600040E251E40F9433390F94A5399B018BE25E
:1042700037FF05C022273327261B370B8DE280939B
:104280009108C90164E670E00F94793BCB01EAE044
:10429000F0E0BF010F94793B805D80939208C901E3
:1042A000BF010F94793B282FCB01BF010F94793BBD
:1042B000805D809393088EE280939408205D209324
:1042C000950881E998E0FF90EF90DF90CF90BF9044
:1042D000AF909F908F9008956DEB77E386E095EB1C
:1042E00094CF8F929F92AF92BF92CF92DF92EF9234
:1042F000FF92CF936B017C0120E030E0A9010F9485
:10430000913187FDC3C06DEB77E386E095E3A701AC
:1043100096010F9439386B017C0120E030E0A9014F
:104320000F94913187FFB7C0C701B601905820E0C4
:1043300030E040E251E40F94F73120E030E040E219
:1043400051E40F94F73120E030E040EA50E40F945C
:10435000393820E030E040E251E40F9433390F94D3
:10436000A5396B017C0160E280EAC81686E8D806B0
:1043700081E0E806F1048CF0C701B60120EA36E8D6
:1043800041E050E00F94F737CA01B9012AE030E06C
:1043900040E050E00F94F737605D60938F0860E273
:1043A00080E1C81687E2D806E104F1048CF0C70169
:1043B000B60120E137E240E050E00F94F737CA0140
:1043C000B9012AE030E040E050E00F94F737605D3B
:1043D0006093900860E288EEC81683E0D806E10496
:1043E000F1048CF0C701B60128EE33E040E050E064
:1043F0000F94F737CA01B9012AE030E040E050E0FD
:104400000F94F737605D6093910860E284E6C81608
:10441000D104E104F1048CF0C701B60124E630E0D8
:1044200040E050E00F94F737CA01B9012AE030E0CC
:1044300040E050E00F94F737605D609392088AE0A7
:10444000882E912CA12CB12CC701B601A501940195
:104450000F94F737C62FCA01B901A50194010F9433
:10446000F737605D609393088EE280939408C05D97
:10447000C09395088FE898E0CF91FF90EF90DF9080
:10448000CF90BF90AF909F908F9008956DEB77E3A2
:1044900086E095EB3CCF20E030E040E251E4C701FC
:1044A000B60149CF8F929F92AF92BF92CF92DF9287
:1044B000EF92FF92CF936B017C0120E030E0A901E5
:1044C0000F94913187FFA3C06DEB77E386E095EB06
:1044D000A70196010F9439386B017C0120E030E090
:1044E00040E251E40F94F73120E030E048EC52E430
:1044F0000F94F7314B015C0120E030E040E251ECD9
:10450000C701B6010F949131181654F420E030E041
:1045100048EC52E4C701B6010F94993A87FD8BC06D
:1045200020E030E0A901C701B6010F94913187FF67
:1045300073C060E070E080EA90ECA50194010F94F4
:10454000393820E030E040E251E40F9433390F94E1
:10455000A5396B017C01F7FC64C020E137E240E043
:1045600050E00F94F737CA01B9012AE030E040E08B
:1045700050E00F94F737605D60939008C701B60173
:1045800028EE33E040E050E00F94F7379AE0892EB0
:10459000912CA12CB12CCA01B901A50194010F9451
:1045A000F737605D60939108C701B60124E630E0FB
:1045B00040E050E00F94F737CA01B901A50194011A
:1045C0000F94F737605D609392088EE280939308B2
:1045D000C701B601A50194010F94F737C62FCA0190
:1045E000B901A50194010F94F737605D60939408B9
:1045F000C05DC093950880E998E0CF91FF90EF905F
:10460000DF90CF90BF90AF909F908F9008956DEB0B
:1046100077E386E095E35CCF60E070E080EA90E4C9
:104620008CCFF094E094D094C094C11CD11CE11CB8
:10463000F11C6DE2A1CF20E030E0A901C701B60175
:104640000F94913187FF6AC060E070E080EA90ECDF
:10465000A50194010F94393820E030E040E251E4A4
:104660000F9433390F94A5394B015C0120E030E001
:10467000A901C701B6010F94993A87FD0BC020E04C
:1046800030E040E251E4C701B6010F94913160E29D
:1046900087FD13C0B7FC47C0C501B40128EE33E065
:1046A00040E050E00F94F737CA01B9012AE030E04A
:1046B00040E050E00F94F737605D60939108C501CA
:1046C000B40124E630E040E050E00F94F7378AE090
:1046D000C82ED12CE12CF12CCA01B901A7019601F9
:1046E0000F94F737605D609392088EE28093930891
:1046F000C501B401A70196010F94F737C62FCA016F
:10470000B901A70196010F94F737605D6093940893
:10471000C05DC093950881E998E06FCF60E070E0DC
:1047200080EA90E495CFB094A09490948094811CFA
:10473000911CA11CB11C6DE2C0CFCF93DF93EC01A3
:10474000CB01BA010F94983120E030E040E251E40F
:104750000F943339688379838A839B83DF91CF9168
:104760000895CF93DF93EC01CB01BA010F949831F8
:1047700020E030E040E251E40F94333968837983DC
:104780008A839B83DF91CF9108950F94983120E025
:1047900030E040E251E40F9433390C947121CF930F
:1047A000DF93EC01CB01BA010F94983120E030E0A7
:1047B00040E251E40F943339688379838A839B8381
:1047C000DF91CF9108950F94983120E030E040E2DE
:1047D00051E40F9433390C94F020CF93DF93EC0124
:1047E000CB01BA010F949831688379838A839B83C4
:1047F000DF91CF910895CF93DF93EC01CB01BA0104
:104800000F949831688379838A839B83DF91CF915A
:104810000895CF93DF93EC01CB01BA010F94983147
:104820002AE037ED43E25DE30F9433390F94AC395E
:10483000688379838A839B83DF91CF910895CF9397
:10484000DF93EC01CB01BA010F9498312AE037EDE8
:1048500043E25DE30F943339688379838A839B83D2
:10486000DF91CF910895CF93DF93EC01CB01BA0193
:104870000F94983120E030E048EC52E40F94333943
:10488000688379838A839B83DF91CF910895CF9347
:10489000DF93EC01CB01BA010F94983120E030E0B6
:1048A00048EC52E40F943339688379838A839B837D
:1048B000DF91CF9108950F94983120E030E048ECDB
:1048C00052E40F9433390C943A200F94983120E03D
:1048D00030E048EC52E40F9433390C945222CF93D9
:1048E000DF93EC01CB01BA010F9498310F94A539F5
:1048F00079836883DF91CF910895CF93DF93EC01A3
:10490000CB01BA010F94983120E030E04AE754E43B
:104910000F943339688379838A839B83DF91CF91A6
:1049200008952CEA35EC47E25EE36091120670913F
:10493000130680911406909115060F9433396093F5
:10494000BF067093C0068093C1069093C206089577
:104950002CEA35EC47E25EE360911606709117068B
:1049600080911806909119060F94F7316093BB0659
:104970007093BC068093BD069093BE060895809107
:104980001A0690911B06A0911C06B0911D068093FB
:10499000B7069093B806A093B906B093BA060895E7
:1049A000FC0184910895FC0180810895FC01A0819F
:1049B000B1811C92A281B3818C918F5F8C93028014
:1049C000F381E02D90818CE0989F800D1124E9E126
:1049D000F5E113AE84AF0895119800C090910201E3
:1049E00087FD9095917090930001119A00C000C0CE
:1049F000119800C09091020186FD9095917090935E
:104A00000001119A00C000C0119800C090910201ED
:104A100085FD9095917090930001119A00C000C09F
:104A2000119800C09091020184FD9095917090932F
:104A30000001119A00C000C0119800C090910201BD
:104A400083FD9095917090930001119A00C000C071
:104A5000119800C09091020182FD90959170909301
:104A60000001119A00C000C0119800C0909102018D
:104A700081FD9095917090930001119A00C000C043
:104A8000119800C080910201817080930001119AF9
:104A900000C000C0089590E080E00895CF93DF93B8
:104AA000C0917208D091730881E0CE31D105E4F055
:104AB00020E030E040E05FE360916E0870916F08A5
:104AC00080917008909171080F9439380F94A5392E
:104AD0006C1B7D0B77FF03C071956195710981E0B7
:104AE000633071050CF080E0DF91CF91089590E084
:104AF00080E00895CF93DF93DB01F9019C91913021
:104B0000C1F0943080F094509C938830D1F480812F
:104B10009181009771F0019791838083480F591F0D
:104B2000EA01188206C08C3539F49C5F9C9394305E
:104B300041F4DF91CF9108958B3339F781E08C9365
:104B4000F8CF20813181B9016F5F7F4F718360831E
:104B5000420F531FEA018883808191818F3591052F
:104B60006CF7E7CF0F931F9381E000916D161091C2
:104B70006E1620916F163091701640916916509103
:104B80006A1660916B1670916C160417150726074C
:104B9000370708F480E01F910F9108952091520586
:104BA000833021F425FD0CC024FD0CC030E0A901A8
:104BB00002C0559547958A95E2F7CA01817008951C
:104BC00081E0089580E0089580916E0584FD0BC01A
:104BD0008091700587FD07C090917105937081E009
:104BE00019F480E0089581E008952FEB280F2A3111
:104BF00008F047C0E22FF0E080916E0590916F05BC
:104C0000A0917005B091710504C0B695A7959795D0
:104C100087952A95D2F780FD02C081700895EC5ADD
:104C2000FA4FE081EE2341F18091EF0E9091F00E6A
:104C3000E80FF92FF11D808190ED980F9A3030F038
:104C40008E3251F4818180538A3098F4F093480574
:104C5000E093470581E008958D3211F08B3249F4DD
:104C6000818190ED980F9A3088F38E3211F4828111
:104C7000EACFF0E0E0E0EACF109248051092470555
:104C8000E9CF80E008950E94F525882341F081E076
:104C90002091470530914805232B09F480E00895C1
:104CA0000F931F9341E050E0082E02C0440F551FA0
:104CB0000A94E2F7052E000C660B770B00911E0696
:104CC00010911F062091200630912106402B512B78
:104CD000622B732B40931E0650931F066093200691
:104CE0007093210690912302891303C081E0809381
:104CF000F1081F910F910895269A2E9A08952F92E8
:104D00003F924F925F926F927F928F929F92AF925B
:104D1000BF92CF92DF92EF92FF920F931F93CF93A8
:104D2000DF93D62FC72FFC0180809180A280B380B3
:104D3000C501B40120E831E541E050E00F94D537DA
:104D4000C9016DE671E00F94653B6B017C01C50103
:104D5000B40120E13EE040E050E00F94D537CA01B5
:104D6000B90128E130E040E050E00F94D537362E0D
:104D7000272E062F172F8CE3482E512C612C712CD7
:104D8000C501B401A30192010F94D537B62EA72E09
:104D9000CA01B901A30192010F94D537CB01C11407
:104DA000D10479F1AF92BF927F936F932F923F928C
:104DB000FF92EF92DF92CF928DEA92E19F938F93D1
:104DC000CF93DF930F9428318DB79EB70E960FB611
:104DD000F8949EBF0FBE8DBF8D2F9C2FDF91CF917A
:104DE0001F910F91FF90EF90DF90CF90BF90AF9009
:104DF0009F908F907F906F905F904F903F902F90FB
:104E00000895E114F104C9F0AF92BF927F936F93BC
:104E10002F923F92FF92EF928DE992E19F938F93B1
:104E2000CF93DF930F942831EDB7FEB73C960FB6C2
:104E3000F894FEBF0FBEEDBFCFCF012BB9F0AF92FC
:104E4000BF927F936F932F923F9281E992E19F935C
:104E50008F93CF93DF930F9428318DB79EB70A9627
:104E60000FB6F8949EBF0FBE8DBFB6CF892BA9F0A9
:104E7000AF92BF927F936F9389E892E19F938F9354
:104E8000CF93DF930F942831EDB7FEB738960FB666
:104E9000F894FEBF0FBEEDBF9FCFAF92BF9285E8E3
:104EA00092E19F938F93CF93DF930F9428310F90CC
:104EB0000F900F900F900F900F908ECF0F9498310E
:104EC00029EC38EC48EC5EE30F94333920E030E015
:104ED00040E05FE30F9439380F94AC39862F0C947F
:104EE0005DDACF92DF92EF92FF926B017C0120E0BE
:104EF00030E0A9010F94913187FD26C06DEB77E377
:104F000086E095E3A70196010F9439386B017C0187
:104F100020E030E0A9010F94913120E030E040E042
:104F20005FE387FF04C020E030E040E05FEBC701B3
:104F3000B6010F9439380F94A539CB01FF90EF904B
:104F4000DF90CF900C9428DA6DEB77E386E095EB59
:104F5000D9CF0F9498310C9471270F9498310F94F6
:104F6000A539CB010C9428DA63E972E084E690E07D
:104F70000E943FF170E060E08AE090E00E943FF123
:104F80006AEB72E084E690E00C943FF181110C949E
:104F9000B42768E270E080E991E00C943FF10E9450
:104FA000CCBA0C94C6270E945BE90C94C6270E94D9
:104FB00043D30C94B427CF93DF9300D01F92CDB787
:104FC000DEB70F94AC390F94963169837A838B8363
:104FD0009C83CE0101960E9426D60F900F900F90D1
:104FE0000F90DF91CF9108950F9498312AE037ED1B
:104FF00043E25DE30F9433390C94DB27CF92DF92C9
:10500000EF92FF92CF93DF9300D01F92CDB7DEB720
:105010006B017C0120E030E0A9010F94913187FD04
:105020001BC06DEB77E386E095E3A70196010F9433
:10503000393869837A838B839C83CE0101960E94E1
:1050400026D60F900F900F900F90DF91CF91FF9089
:10505000EF90DF90CF9008956DEB77E386E095EBCE
:10506000E4CF0F9498312AE037ED43E25DE30F94EB
:1050700033390C94FE270F9498310C94FE27CF926D
:10508000DF92EF92FF92CF93DF9300D01F92CDB7C4
:10509000DEB76B017C0120E030E0A9010F94913173
:1050A00087FD1BC06DEB77E386E095E3A7019601D2
:1050B0000F94393869837A838B839C83CE01019660
:1050C0000E94A9D60F900F900F900F90DF91CF9173
:1050D000FF90EF90DF90CF9008956DEB77E386E03F
:1050E00095EBE4CF0F94983120E030E040E251E4BA
:1050F0000F9433390C943F28CF92DF92EF92FF92B6
:10510000CF93DF9300D01F92CDB7DEB70F949831C5
:1051100020E030E04AE754E40F9433396B017C011E
:1051200020E030E0A9010F9491312DEB37E346E008
:1051300055E387FF04C02DEB37E346E055EBC7018D
:10514000B6010F94393869837A838B839C83CE01AF
:1051500001960F94510C0F900F900F900F90DF91CC
:10516000CF91FF90EF90DF90CF9008950C9458BFAF
:105170000C9458BF0C940ABF0C940ABF0C940ABF3D
:105180000C940ABFCF92DF92EF92FF920F931F937E
:105190000F94FD0F009180051091810520918205EB
:1051A000309183056B017C01C01AD10AE20AF30A2F
:1051B0009701860137FD11C020917F05209520932E
:1051C0007F056A547C4F8F4F9F4F6093800570938B
:1051D0008105809382059093830581E090917F05FE
:1051E000911101C080E01F910F91FF90EF90DF902F
:1051F000CF900895CF93DF93C0917208D091730838
:10520000209729F160916E0870916F088091700865
:10521000909171080F94A5396E5F7F4F24976C179A
:105220007D07ACF47093A00660939F060F94FD0F6A
:10523000605A75418F4F9F4F6093A1067093A206ED
:105240008093A3069093A406DF91CF9108951092C6
:10525000A1061092A2061092A3061092A406F4CF03
:10526000BF92CF92DF92EF92FF920F931F93CF9353
:10527000DF936B01E9014A3009F4EAC0453109F0D6
:1052800092C0DB011296ED91FC911281C681D7810B
:1052900080910201809582708093000100C000001F
:1052A00086E290E00197F0F7012F0295007F20E160
:1052B000B22EB10E88EF0E94EC2400C0000086E2FE
:1052C00090E00197F0F7103208F0ACC0812F8077A2
:1052D00080680E94EC24802F0E94EC2400C0000013
:1052E00086E290E00197F0F780E80E94EC2480E0ED
:1052F0000E94EC2400C0000086E290E00197F0F7E5
:105300008AEF0E94EC2400C0000086E290E0019742
:10531000F0F77E01B0E1EB0EF11C8881807F0E94E6
:10532000EC2489918295807F0E94EC24CE15DF05C4
:10533000A1F700C0000086E290E00197F0F71F5F40
:10534000005F1B11B7CF8091020182708093000132
:10535000D6011296ED91FC9180819281980F9283F3
:105360002181921708F003C294819F5F94839381F7
:10537000890F821710F08FEF820F8383458150E0F1
:10538000440F551F70E060E0868197810F94B33B16
:1053900081E0DF91CF911F910F91FF90EF90DF900F
:1053A000CF90BF900895FB0102811381423309F42D
:1053B000E0C108F4E8C1463409F4D5C1473409F422
:1053C000DDC14B3329F789812B81D80112966C916D
:1053D000129713964C91213009F41AC2233009F028
:1053E000FBC138EF380F582F91E0431708F490E0D5
:1053F00041E0531708F040E031E0561708F430E080
:10540000592F542B352319F4942309F4C1CFFA8072
:1054100030E0F901E654FD4FD0802A543D4FF901A8
:10542000E080F3C180EE810F8068807F0E94EC24D1
:10543000812F8295807F0E94EC2400C0000086E2CC
:1054400090E00197F0F780E80E94EC2480E850CFCC
:10545000809101018260809301018091020182703C
:10546000809300018091010181608093010180910E
:105470000201817080930001099A119A80910201C2
:10548000809582708093000100C0000086E290E069
:105490000197F0F788E790E0CEE9DFE0FE01319771
:1054A000F1F70197D9F788EF0E94EC2400C00000C3
:1054B00086E290E00197F0F780E20E94EC2480E021
:1054C0000E94EC2400C0000086E290E00197F0F713
:1054D00080E00E94EC2480E80E94EC2400C00000E0
:1054E00086E290E00197F0F780E00E94EC2480E1F2
:1054F0000E94EC2400C0000086E290E00197F0F7E3
:10550000CE010197F1F7CE010197F1F7CE01019796
:10551000F1F7CE010197F1F7CE010197F1F7CE0136
:105520000197F1F7CE010197F1F7CE010197F1F75D
:10553000CE010197F1F7CE010197F1F7CE01019766
:10554000F1F7CE010197F1F7CE010197F1F7CE0106
:105550000197F1F72197F1F780E20E94EC2480E4B3
:105560000E94EC2400C0000086E290E00197F0F772
:1055700080E20E94EC2480E60E94EC2400C000003F
:1055800086E290E00197F0F7D0E0C0E08C2F8077C2
:1055900080680E94EC248D2F0E94EC2400C0000043
:1055A00086E290E00197F0F780E80E94EC2480E02A
:1055B0000E94EC2400C0000086E290E00197F0F722
:1055C0008AEF0E94EC2400C0000086E290E0019780
:1055D000F0F790E2119800C08091020181708093F1
:1055E0000001119A00C000C0119800C08091020112
:1055F000817080930001119A00C000C0119800C012
:1056000080910201817080930001119A00C000C056
:10561000119800C080910201817080930001119A5D
:1056200000C000C0119800C0809102018170809379
:105630000001119A00C000C0119800C080910201C1
:10564000817080930001119A00C000C0119800C0C1
:1056500080910201817080930001119A00C000C006
:10566000119800C080910201817080930001119A0D
:1056700000C000C0119800C0809102018170809329
:105680000001119A00C000C0119800C08091020171
:10569000817080930001119A00C000C0119800C071
:1056A00080910201817080930001119A00C000C0B6
:1056B000119800C080910201817080930001119ABD
:1056C00000C000C0119800C08091020181708093D9
:1056D0000001119A00C000C0119800C08091020121
:1056E000817080930001119A00C000C0119800C021
:1056F00080910201817080930001119A00C000C066
:10570000119800C080910201817080930001119A6C
:1057100000C000C000C00000E6E2F0E03197F0F702
:10572000915009F057CF88EF0E94EC2400C0000090
:1057300086E290E00197F0F7CF5FD05FC03209F0CA
:1057400025CF80E00E94EC2480EC0E94EC2400C075
:10575000000086E290E00197F0F7809102018270EC
:105760008093000115CEF8018581888311CE80E0F9
:1057700010CEB901C8010F9475100ACED801119648
:105780008C91888305CE443191F0473109F000CEE9
:105790001882D80112968C911297898315968C9154
:1057A000159781508A8313968C918B83F1CDD80104
:1057B00015964C91159750E0440F551F70E060E02E
:1057C00016968D919C910F94B33BF80112828081C3
:1057D000815083831482DCCD481708F4D9CD861715
:1057E00008F4D6CDFA80E12CD12C243070F410CE00
:1057F000BE01C8010F947510898198819D0D988311
:105800008E0D8983FF0C09F4C3CDF7FEF6CFF0CFE0
:1058100058E0580F382FE8CDEF92FF920F931F9367
:10582000CF93DF93EC018B017A018A859B858617E4
:10583000970731F0888199810F94B9121B870A87E5
:10584000B701888199810F949F0B2E813F81820F30
:10585000932F911D9F838E8390E080E0DF91CF9105
:105860001F910F91FF90EF9008959F92AF92BF927A
:10587000CF92DF92EF92FF920F931F93CF93DF931C
:10588000EC018B01942EA52E8A859B8586179707A0
:1058900031F0888199810F94B9121B870A87888516
:1058A0009985019649F5BC800A818E81080FC880D0
:1058B000D980D6015596ED91FC91C6011995B80E87
:1058C000E92CFA2C10E0F70121917F01211127C06A
:1058D0008E819F81810F911D9F838E8390E080E058
:1058E000DF91CF911F910F91FF90EF90DF90CF90BC
:1058F000BF90AF909F9008950E811F81692D7A2DE2
:10590000888199810F949F0B800F912F911D28857D
:1059100039852817390738F681E090E0E1CF4B2D23
:10592000602FC6010F941113080F180FCCCFDF9210
:10593000EF92FF920F931F93CF93DF93EC01D62E3C
:105940001CAD0BAD7C0184E0E80EF11CE98DFA8DF5
:10595000C7011995412F480F2D2D602FC7010F94B6
:1059600011139BAD890F8BAF81E090E0DF91CF9158
:105970001F910F91FF90EF90DF900895CF9380914A
:105980007C05811154C01092541510925515109237
:10599000561510922215109221151092241510926E
:1059A00023151092261581E08093251582E28093BD
:1059B000271510922C1510922B15E0E4F5E12EE43A
:1059C00035E18FEF81932E173F07E1F7C1E0C093D8
:1059D0003D1522E833EF3093331520933215C093F1
:1059E0003415109235151092361590E490933715B2
:1059F0001092381521E833EF30934F1520934E1550
:105A000021E132E03093201520931F1597E1909308
:105A1000441591E19093451590E190934215809340
:105A20004115809340150F94B310C0937C0581E01D
:105A300080937E058DE695E190932E1480932D142E
:105A40001092301410922F14CF910895CF92DF92BC
:105A5000EF92FF920F931F93CF93DF93CDB7DEB7F3
:105A60002C970FB6F894DEBF0FBECDBFF090541543
:105A7000E090551520917E0521111DC04DE255E1A4
:105A80006E2D8F2D0F947D1390E080E0F80EF09234
:105A90005415E092551599272C960FB6F894DEBF51
:105AA0000FBECDBFDF91CF911F910F91FF90EF906F
:105AB000DF90CF900895C0902115D09022152DE150
:105AC00035E13A8329832F2D30E03C832B832E2D23
:105AD00030E03E832D8318861F827A8769871C8673
